:100000000C94400A0C94680A0C94680A0C94680AD0
:100010000C94680A0C94680A0C94680A0C94680A98
:100020000C94680A0C94680A0C942D1C0C949F1C68
:100030000C94680A0C94680A0C94680A0C94680A78
:100040000C94680A0C94680A0C94680A0C94680A68
:100050000C94680A0C94680A0C94680A0C94ED13CA
:100060000C94680A0C94680A0C94680A0C94680A48
:100070000C94680A0C94680A0C94680A0C94680A38
:100080000C94E5140C94680A0C94680A0C94680AA1
:100090000C94680A0C94680A0C94680A0C94680A18
:1000A0000C94680A0C94680A0C94680A100B100BE4
:1000B000100B2A0B960B960BE70BE70B370C370C44
:1000C000AF0CAF0CFF0CFF0C4F0D4F0D9F0D9F0D94
:1000D00051216E218C21AA21AA21C82108227F2228
:1000E0009F22BF22ED22ED22ED22ED221E1E0000F6
:1000F0000080E0F0F8F8F8F8F8FCFEF2E2E2E2E264
:10010000E2C4C488901010E0C000000000000000AD
:100110000101C1F1F9FCFCFCFEFF7F3F1F1F3F3FC7
:100120007571E36F7FFFFFFF600083E7FE1800FE3D
:10013000FFFFFFFFFFFFFFFFE3F030BC8C84C070C8
:10014000300080C0602100000103371417171F0F13
:100150000F030F1F1B19191B1705050606060603BB
:100160000101000000001E1E000000C0E0F0F07859
:10017000783CFCFEFDFFFDFEFC1C3C78F8F0F0E056
:10018000800000000000C0FCFFFF1F030100C0FC56
:10019000FFFFFFFFFFFFFFFE000000073FFFFFFC28
:1001A000E0800000FFFFFF7FFE70C080FFFFFFFFC9
:1001B0000F010FFFFFFFFC80000000F37FFFFFFF38
:1001C000FCF0070007000720383F3F3F3F030000D7
:1001D00000033F3F3F3F20200001000700070007CA
:1001E0001E1E0000000080DCF8F0F8F8FCFCFCFCAF
:1001F000FEFEFEFCFCFCFCF8F8FCFEFFE0C080000C
:100200000CFEC28303677F1F9F3CB9FBFF6F7F6FAC
:100210003F7BFB19DC9E3F7F6781C0C0F3FE00017E
:10022000030F1FFEFEFFF8F8F9F9F8F8FCFFFEFCDB
:10023000FCFCFEFFFFFFFFFF3F1F03000000000666
:10024000030100001D070301010103010F0101006B
:1002500003060C000001030E00001E1E000000003B
:10026000808080808080EEDFDFDFDFDFDFDFDF6E3A
:10027000808080808080000000000000FE7F3F3F83
:100280003F2F2F2F2B2928A8E8E878383C2E2FABBA
:10029000E9E8F8F8FDFE000000001F204040406043
:1002A00070785C4E4743416070787C7E7F7F7F7FB3
:1002B0007F7F3F1F000000000000000000000000E2
:1002C000000000000000000000000000000000002E
:1002D000000000001E1E0000E0F0F8F87C7C7C7C32
:1002E000FCFCFCFCFCFCFCFCFC7CFC7C7CF8F8E0F2
:1002F000E06000000000FFFFFFFF18181818FFFF64
:10030000FFFFFFFFFFFFFF1818181CFFFFFFFFFF95
:1003100000000000FFFFFFFF4E0E0E0EFFFFFFFF6D
:10032000FFFFFFFFFF0E0E0E0FFFFFFFFF7F00001E
:1003300000000107070F0F0F0F0F0F0F0F0F0F0F09
:100340000F0F0F0F0F0F0F070703010000001E1EF6
:100350000000E0F0F8787C7C7CFCFCFCFCFCFCFC05
:10036000FCFCFCFC7CFC7C78F8E0E0600000000019
:10037000FFFFFFF8F8F8F8FFFFFF1F1F1F1FFFFF29
:10038000FFFFF8F8F8FCFFFFFFFF00000000FFFF91
:10039000FF4F0F0F0FFFFFFFFEFEFEFEFFFFFFFFF1
:1003A0000F0F0F0FFFFFFF7F000000000107070F77
:1003B0000F0F0F0F0F0F0F0F0F0F0F0F0F0F0F0F4D
:1003C0000F070703010000001E1E0000E0F0F8F810
:1003D000FCFCFCFCFCFCFCFCFCFCFCFCFCFCFCFC5D
:1003E000FCF8F8E0E06000000000FFFFFFFFFFFF07
:1003F000727171F0FFFFFFFF78707070FFFFFFFFF9
:10040000FFFFFFFF00000000FFFFFFFFFFFFF8F806
:10041000F8F8FFFFFFFFF8F8F8F8FFFFFFFFFFFF16
:10042000FF7F000000000107070F0F0F0F0F0F0FD6
:100430000F0F0F0F0F0F0F0F0F0F0F070703010005
:1004400000001E1E0000E0F0F8F8FCFCFCFCFCFCC8
:10045000FCFCFCFCFCFCFCFCFCFCFCF8F8E0E060B8
:1004600000000000FFFFFFFFFFFFF0F0F0F0FF1FB4
:100470001F1F1FFFFFFFFFFFFFFFFFFFFFFF00002A
:100480000000FFFFFFFFFFFFFFFFFFFFFFFEFEFE7D
:10049000FEFFC3C3C3C3FFFFFFFFFF7F00000000D9
:1004A0000107070F0F0F0F0F0F0F0F0F0F0F0F0F7A
:1004B0000F0F0F0F0F070703010000001E1E0000A3
:1004C000E0F0F8F8FCFCFCFCFCFCFCFCFCFCFCFC9C
:1004D000FCFCFCFCFCF8F8E0E06000000000FFFF22
:1004E000FFFFFFF0F0F0F1FFFFFFFFFFFFFFFFFF57
:1004F000FFFFFFFFFFFFFFFF00000000FFFFFFFF08
:10050000FFFFFFFFFFFFFFFFFFFFFFFFC3C3C3C3EB
:10051000FFFFFFFFFF7F000000000107070F0F0F25
:100520000F0F0F0F0F0F0F0F0F0F0F0F0F0F0F07E3
:100530000703010000001E1E0000E0F0F8F8FCFCBC
:10054000FCFCFCFCFCFCFCFCFCFCFCFCFCFCFCF8EF
:10055000F8E0E06000000000FFFFFFFFFFFFFFFF8B
:10056000FFFFFF1F1F1F1FFFFFFFFFFFFFFFFFFF1B
:10057000FFFF00000000FFFFFFFFFFFFFFFFFFFF87
:10058000FFFEFEFEFEFFFFFFFFFFFFFFFFFFFF7FFF
:10059000000000000107070F0F0F0F0F0F0F0F0FC5
:1005A0000F0F0F0F0F0F0F0F0F07070301000000B2
:1005B000596F752053636F7265643A004E6F7420F3
:1005C000656E6F756768204865616C74680A746F42
:1005D00020426C6F636B2041747461636B00422036
:1005E0002D20426C6F636B2041747461636B000A51
:1005F00041202D20526F6C6C206E657874206469E8
:1006000063650A00526F6C6C20796F7572206669A1
:10061000727374206469636500416C69656E205370
:10062000636F7265643A00416C69656E204E65784F
:1006300074205468726F7700416C69656E20547540
:10064000726E21000A596F7572206E657720686599
:10065000616C74683D00416C69656E20697320446B
:1006600045414421210A596F7572206E65772073C8
:100670007472656E6774683D00596F75206C6F7396
:100680007420626174746C650A6C6F7365206120FC
:100690006C69666521000A416C69656E2048656178
:1006A0006C74683A000A416C69656E205374726517
:1006B0006E6774683A000A4472617721000A596FC4
:1006C00075204C6F736520526F756E64000A594F28
:1006D000552057494E20524F554E4421000A416C37
:1006E00069656E2053636F7265643A00596F7520B7
:1006F00053636F7265643A000A416C69656E2053FA
:100700007472656E6774683A00416C69656E204268
:100710006C6F636B6564210A0A596F75722053749C
:1007200072656E6774683A00596F7520426C6F632A
:100730006B6564210A4C6F7365205374616D696E3B
:100740006120506F696E74000A41203D2059455365
:100750000A42203D204E4F00596F75206861766532
:1007600020696E76696E6369626C650A446F2079F0
:100770006F752077616E740A746F207573652069D8
:10078000743F0A000A596F752068617665203278D7
:1007900020506F77657200205374613A000A416CF3
:1007A00069656E205374723A00205374613A00599F
:1007B0006F7572205374723A00416C69656E2072D5
:1007C000616E2061776179210A4C75636B792065D0
:1007D0007363617065210000000000003E5B4F5BA9
:1007E0003E3E6B4F6B3E1C3E7C3E1C183C7E3C18D4
:1007F0001C577D571C1C5E7F5E1C00183C1800FFB8
:10080000E7C3E7FF0018241800FFE7DBE7FF3048E5
:100810003A060E2629792926407F050507407F05DF
:10082000253F5A3CE73C5A7F3E1C1C08081C1C3ED6
:100830007F14227F22145F5F005F5F06097F017FC4
:10084000006689956A606060606094A2FFA2940867
:10085000047E040810207E201008082A1C08081CAA
:100860002A08081E101010100C1E0C1E0C30383EEA
:100870003830060E3E0E06000000000000005F004B
:10088000000007000700147F147F14242A7F2A1217
:1008900023130864623649562050000807030000FD
:1008A0001C2241000041221C002A1C7F1C2A08082F
:1008B0003E08080080703000080808080800006042
:1008C000600020100804023E5149453E00427F402E
:1008D0000072494949462141494D331814127F108D
:1008E00027454545393C4A494931412111090736D7
:1008F00049494936464949291E0000140000004074
:10090000340000000814224114141414140041226D
:10091000140802015909063E415D594E7C1211121C
:100920007C7F494949363E414141227F4141413E18
:100930007F494949417F090909013E414151737F7E
:100940000808087F00417F41002040413F017F08A7
:100950001422417F404040407F021C027F7F0408F8
:10096000107F3E4141413E7F090909063E41512128
:100970005E7F09192946264949493203017F01034F
:100980003F4040403F1F2040201F3F4038403F63D2
:100990001408146303047804036159494D43007F2C
:1009A0004141410204081020004141417F040201FD
:1009B000020440404040400003070800205454789F
:1009C000407F284444383844444428384444287FED
:1009D000385454541800087E090218A4A49C787F47
:1009E0000804047800447D40002040403D007F1012
:1009F00028440000417F40007C047804787C08048F
:100A000004783844444438FC182424181824241842
:100A1000FC7C08040408485454542404043F44242F
:100A20003C4040207C1C2040201C3C4030403C444A
:100A3000281028444C9090907C4464544C44000806
:100A40003641000000770000004136080002010234
:100A500004023C2623263C1EA1A161123A404020FC
:100A60007A38545455592155557941215454784177
:100A7000215554784020545579400C1E5272123939
:100A800055555559395454545939555454580000F2
:100A9000457C410002457D420001457C40F029240F
:100AA00029F0F0282528F07C545545002054547C2A
:100AB000547C0A097F493249494932324848483210
:100AC000324A4848303A4141217A3A42402078003F
:100AD0009DA0A07D39444444393D4040403D3C24E4
:100AE000FF2424487E4943662B2FFC2F2BFF092926
:100AF000F620C0887E090320545479410000447DCB
:100B0000413048484A32384040227A007A0A0A7214
:100B10007D0D19317D2629292F28262929292630BE
:100B2000484D4020380808080808080808382F10E1
:100B3000C8ACBA2F102834FA00007B000008142A31
:100B4000142222142A14089500220095AA005500A8
:100B5000AAAA55AA55AA000000FF00101010FF0015
:100B6000141414FF001010FF00FF1010F010F01408
:100B70001414FC001414F700FF0000FF00FF14140D
:100B8000F404FC141417101F10101F101F14141459
:100B90001F00101010F0000000001F101010101F98
:100BA00010101010F010000000FF101010101010A6
:100BB000101010FF10000000FF140000FF00FF00E5
:100BC000001F10170000FC04F4141417101714145D
:100BD000F404F40000FF00F714141414141414F7B0
:100BE00000F7141414171410101F101F141414F409
:100BF000141010F010F000001F101F0000001F1450
:100C0000000000FC140000F010F01010FF10FF14A2
:100C10001414FF141010101F00000000F010FFFF4C
:100C2000FFFFFFF0F0F0F0F0FFFFFF00000000001A
:100C3000FFFF0F0F0F0F0F38444438447C2A2A3E21
:100C4000147E02020606027E027E0263554941635B
:100C50003844443C04407E201E2006027E02029955
:100C6000A5E7A5991C2A492A1C4C7201724C304AEE
:100C70004D4D303048784830BC625A463D3E494977
:100C800049007E0101017E2A2A2A2A2A44445F441F
:100C90004440514A444040444A51400000FF01034F
:100CA000E080FF000008086B6B0836123624360619
:100CB0000F090F0600001818000000101000304047
:100CC000FF0101001F01011E00191D1712003C3C0D
:100CD0003C3C00000000001E1E0000000000000060
:100CE000000000000000000000000080402010888C
:100CF0004422118945231F0000000000000000006D
:100D000000804020108844221188442211080402E7
:100D10000100000000001C3F7BF1F02824E2118854
:100D2000442211080402010000000000000000003D
:100D30000000003C3C3E3F0F0703070F1F1C180C30
:100D40000E00000000000000000000000000000095
:100D5000001E1E00F0F018D8D8DCCCECECEEE6F665
:100D6000F7F3F3F7F6E6EEECECCCDCD8D818F0F0BD
:100D700000000FFFF803FFFFFFFFFFFFFFFFFFFF74
:100D8000FFFFFFFFFFFFFFFFFFFF03F8FF0F000064
:100D9000001F7FF0C71F7FFFFFFFFFFFFFFFFFFF69
:100DA000FFFFFFFFFF7F1FC7F07F1F000000000055
:100DB000000103070E0C191B1B3B333737333B1B5A
:100DC0001B190C0E070301000000001E1E0000008E
:100DD000000000000000000080E03018080C04044F
:100DE00024040404040404041CF0000000000000B7
:100DF0000000000080FF010008000000000010005B
:100E000000800000000180FF000000C0C0C0C0E002
:100E1000763D392020202030121018080C040404DC
:100E200004060202030000000000000301000000AD
:100E300000000000000000000000000000000000B2
:100E400000000000001E1E70F8FCFCCEC6878383E5
:100E50008180C0C0E0E0E0E0C0C0808183838786FD
:100E6000CEDCFCF8700000010307EFFFFFFFFFFF7F
:100E7000FFFFFFFFFFFFFFFFFFFFFFFFFFEF070386
:100E800001000000000000F0FFFFFFFEFCFCFCF989
:100E9000F90101F9F9FDFCFCFCFEFFFFF000000088
:100EA000000000000003070F1F1F3F3F3F3F3F00B0
:100EB000003F3F3F3F3F1F1F0F0703000000001E82
:100EC0001E0C0E1F1F1FDFDFEFEFF6F8FEFAF2F227
:100ED000F2F2FAFEF8F6EFEFDFDF1F1F1F0E0C0035
:100EE00000000000031FFFFFFFEFEFEFF7FFFFF72A
:100EF000EFEFEFFFFFFF1F03000000000000F0F81E
:100F0000FC7E3E3E0C01070707F3FDFEFEFDF307E6
:100F10000707010C3E3E7EFCF8F0000000000000D8
:100F200000000000000000010307070301000000AB
:100F3000000000000000000000281E00000000006B
:100F400000000000003EE6FE0E0E068EFEFEFEFED7
:100F5000FEFE4E0E0E0E8ECE7E0000000000000043
:100F600000000000000000000000000000000FF37F
:100F7000F8488030FFFFFFFF7F1F0000C0E0FF1F29
:100F80000000000000000000000000000000000061
:100F900000000000000000000307051E1CF1F3F331
:100FA000BA1807070301000000000000000000005D
:100FB0000000000000000000000000000000003001
:100FC000383C3E3F3F3F3F3F3F3F3E3C3C38300098
:100FD00000000000000000000000002828F8FEC704
:100FE0001FFEFEFCFC1C9C5CFEFEFFFFFFFFFFFFE4
:100FF000FFFFFFFFFFFFFF5E8E0E0EFCFCFCFC0CF4
:10100000FEDE7E0E000F3F7FF8F083DF0FFF3EFE17
:10101000FDFFFFFFFFFF3FFF3FFFFFFFFFFFFFF869
:10102000FDFEFF7F3F6F0000E0FF3F00000000007B
:1010300007FFFFFFFCFEF8F3F019031F0FC7870738
:101040001F3F07E7F3878F81F1E1C7E0E2FEFC3F36
:101050000F03000000303038BCBFFFFFFFFFFFFF71
:10106000FFFFFFFEFFFFFFFEFFFFFFFFFFFFFFFF92
:10107000FFFFFFFF7F7FFEB6EE8C1C18000202030D
:101080000101080C0E070202030101010303030121
:101090000101030307070B163D2103070F0E08008C
:1010A000010302000057656C6C20446F6E65210AD5
:1010B0004F6E6C79205A617263207374616E647331
:1010C0000A696E20796F75722077617921001E1E82
:1010D0000000000000000000000010FE1E0F0FEED8
:1010E0003E100000000000000000000000000000B2
:1010F0000000000000C0308C8281808080010618D2
:10110000608000000000000000000000000000C03F
:10111000300C03530304041408082809090949077B
:1011200006186080000000000000000001020204B8
:1011300004080808091010101410101410101108D9
:101140000807000000000000456D70747920526FA0
:101150006F6D0A4D6F766520616C6F6E672100467A
:101160006F756E64204472696E6B0A2B312048657E
:10117000616C746800446F75626C652041747461C1
:10118000636B20506F74696F6E0A2B312048656164
:101190006C746800496E76696E636962696C697423
:1011A0007920506F74696F6E0A2B31204865616C2D
:1011B000746800466F756E642061204368616C69D5
:1011C00063652100466F756E642041726D6F7572A4
:1011D0000A2B3120537472656E67746800466F7510
:1011E0006E6420466F6F640A2B31204865616C7411
:1011F0006800466F756E6420536869656C640A2BDD
:101200003120537472656E67746800466F756E6442
:101210002053776F72640A2B3120537472656E67A6
:10122000746800282800000000000000000080C052
:10123000E0F0F8F8FCFCFCFCFC3C1CC0E0F0F0E04A
:10124000E0E0E0F0F0F0F0F0F8F8F0E0800000000E
:10125000000080E0F0F0E78F3F7FFFFFFFFFF7F334
:101260007CFEFFFFEFE3F1F1F83C1F0F1F3F013160
:10127000F0E070380F00E0F8FECFC7E7E3F3FBFFC4
:10128000FF7E7F7F3F1C1D0F0E0F1F9F9F3301812D
:1012900080C0CC7C70389C9FCFC7E0C0C0001F7F4F
:1012A0006F434341C1E1E3E6E0E0F8C4020F01010E
:1012B000FEFEB8BD3F3F7F7FFFF97C7E7EFFFFDFF4
:1012C0009F9F1F3D01000018181C0E0E0F373F3F57
:1012D0001F0B3F3F3E1E0E070303030303000000E6
:1012E000000000000000000103030000000A50722B
:1012F0006573732041005A6172632069732044450D
:10130000414421000A4E6F206D6F7265204C697652
:1013100065730A507265737320410047616D6520E3
:101320004F76657221005072657373204120746F8F
:1013300020537461727400546572726F7200547538
:101340006E6E656C00F0F89C8E8783878E9CF8F03B
:101350000000FEFF0303030303070EFCF80000FE7A
:10136000FF0303030303070EFCF80000FFFF000068
:101370000000000000FFFF0000FEFF8383838383E3
:10138000C7EE7C380000F8FC0E07030303070EFCD1
:10139000F800003F7FE0C08080C0E07F3FFFFF019A
:1013A000010101010101FFFF0000FFFF0C0C0C0C0B
:1013B0001C3E77E3C100007FFFC0C0C0C0C0E0702A
:1013C0003F1F00001F3F70E0C0C0C0E0703F1F0023
:1013D000007FFFC1C1C1C1C1E3773E1C00001F3FB8
:1013E00070E0C0C0C0E0703F1F000000000001FFBF
:1013F000FF01000000D5F08D14A1C881CFD9F1AF55
:101400002000080B00020202010009040000010292
:10141000020000052400100105240101010424023A
:101420000605240600010705810310004009040198
:1014300000020A00000007050202400000070583C1
:10144000024000000403090412010002EF020140FF
:101450004123368000010102030141726475696E07
:101460006F204C4C430041726475626F7900596F74
:1014700075206D7573742066696768742100052393
:1014800011241FBECFEFDAE0DEBFCDBF11E0A0E038
:10149000B1E0E6EDF9E402C005900D92A036B10787
:1014A000D9F726E0A0E6B1E001C01D92A333B20750
:1014B000E1F71AE0C0E4DAE004C02197FE010E94DF
:1014C000DE24CF33D107C9F70E94531F0C94E924BF
:1014D0000C9400008F929F92AF92BF92EF92FF9276
:1014E0000F931F93CF93E82E062F0E942C188CE3A6
:1014F000882E912CA12CB12C002E000C110B0E2C3F
:10150000000CFF080E94121A66E070E080E090E094
:101510000E944813C1E0C60FC33099F03CF4C130BB
:1015200069F0C230D1F44CEB54E013C0C53079F00F
:101530005CF0C63091F444ED52E00BC046E355E058
:1015400008C042E454E005C048EC53E002C04EE459
:1015500053E0B801C7010E9446178EEB95E00E9448
:10156000E11EC501B4010E94B3138AE0880E911CEC
:10157000A11CB11C84EB88169104A104B10411F6DE
:101580008C2FCC0F990BCF911F910F91FF90EF9063
:10159000BF90AF909F908F9008950E94F0180E9486
:1015A000941583FD06C00E94941582FFF8CF84E055
:1015B000089588E00895809181018F5F8093810173
:1015C000843181F48091020181508093020187FF70
:1015D00007C08091010181508093010110920201A6
:1015E000109281010E94121A0E942C1862E170E090
:1015F00080E090E00E944813DC01CB010196A11D20
:10160000B11D082E000C990BAA0BBB0BFC013197E6
:10161000E231F10508F027C3EA5AFF4F0C94DE24AB
:1016200081E080936C011092690110926A0110921E
:101630006B0120E430E040E850E060E070E080E0E2
:1016400090E00E948F1920E430E040E050E060E03C
:1016500070E022C210926C011092690110926A012E
:1016600081E080936B012091B0053091B1054091EC
:10167000AE055091AF056091B4057091B5058091AC
:10168000B2059091B3050E948F192091A805309161
:10169000A9054091A6055091A7056091AC057091F0
:1016A000AD058091AA059091AB050E948F192091FC
:1016B000AC053091AD054091AA055091AB05609104
:1016C000B4057091B5058091B2059091B3050E9463
:1016D0008F192091A8053091A9054091A605509138
:1016E000A7056091B0057091B1058091AE0590910C
:1016F000AF050E948F192091B4053091B505409136
:10170000B2055091B30560E070E080E090E00E9487
:101710008F192091B0053091B1054091AE055091DF
:10172000AF0560E470E080E090E0ECC181E0809380
:101730006C018093690110926A0110926B016091B3
:10174000AC057091AD0520E430E040E050E08091C0
:10175000AA059091AB050E948F196091A805709120
:10176000A90520E030E040E050E08091A60590918E
:10177000A7050E948F196091AC057091AD0540914D
:10178000AA055091AB059B0180E890E00E948F195B
:101790006091A8057091A9054091A6055091A705F3
:1017A0009B0180E890E00E948F192091A80530915C
:1017B000A9054091A6055091A7056091AC057091CF
:1017C000AD058091AA059091AB050C948F1981E02D
:1017D00080936C011092690180936A0110926B01F1
:1017E0006091B4057091B50520E430E040E850E028
:1017F0008091B2059091B3050E948F196091B00558
:101800007091B10520E030E040E850E08091AE05F5
:101810009091AF050E948F196091B4057091B50544
:101820004091B2055091B3059B0180E090E00E9489
:101830008F196091B0057091B1054091AE0550913E
:10184000AF059B0180E090E00E948F192091B005C8
:101850003091B1054091AE055091AF056091B4054E
:101860007091B5058091B2059091B305AECF81E03E
:1018700080936C018093690180936A0110926B01DF
:101880002091B8053091B9054091B6055091B70542
:101890006091B4057091B5058091B2059091B30542
:1018A0000E948F192091B8053091B9054091B60575
:1018B0005091B7056091B0057091B1058091AE056A
:1018C0009091AF050E948F196091B4057091B50594
:1018D0004091B2055091B3059B0180E090E00E94D9
:1018E0008F196091B0057091B1054091AE0550918E
:1018F000AF059B0180E090E00E948F192091B00518
:101900003091B1054091AE055091AF056091B4059D
:101910007091B5058091B2059091B3050E948F1921
:101920002091B8053091B9054091B6055091B705A1
:101930006091AC057091AD058091AA059091AB05C1
:101940000E948F192091B8053091B9054091B605D4
:101950005091B7056091A8057091A90506CF109226
:101960006C0181E08093690110926A0110926B0111
:101970002091B0053091B1054091AE055091AF0571
:101980006091B4057091B5058091B2059091B30551
:101990000E948F196091B4057091B5059B0140E8D4
:1019A00050E08091B2059091B3050E948F1960912B
:1019B000B0057091B1059B0140E850E08091AE0503
:1019C0009091AF050E948F192091B4053091B50513
:1019D0004091B2055091B30560E070E080E090E086
:1019E0000E948F192091B0053091B1054091AE054C
:1019F0005091AF0560E470E080E090E0E6CE109298
:101A00006C011092690181E080936A0110926B0170
:101A10002091A8053091A9054091A6055091A705F0
:101A20006091AC057091AD058091AA059091AB05D0
:101A30000E948F196091AC057091AD059B0140E04B
:101A400050E08091AA059091AB050E948F1960919A
:101A5000A8057091A9059B0140E050E08091A60582
:101A60009091A7050E948F192091AC053091AD058A
:101A70004091AA055091AB0560E070E080E890E0ED
:101A80000E948F192091A8053091A9054091A605C3
:101A90005091A70560E470E080E890E096CE109247
:101AA0006C011092690181E080936A0180936B015F
:101AB0002091A8053091A9054091A6055091A70550
:101AC0006091AC057091AD058091AA059091AB0530
:101AD0000E948F196091AC057091AD059B0140E0AB
:101AE00050E08091AA059091AB050E948F196091FA
:101AF000A8057091A9059B0140E050E08091A605E2
:101B00009091A7050E948F192091AC053091AD05E9
:101B10004091AA055091AB0560E070E080E890E04C
:101B20000E948F192091A8053091A9054091A60522
:101B30005091A70560E470E080E890E04FC01092FB
:101B40006C0181E08093690110926A0180936B01BE
:101B50002091B0053091B1054091AE055091AF058F
:101B60006091B4057091B5058091B2059091B3056F
:101B70000E948F196091B4057091B5059B0140E8F2
:101B800050E08091B2059091B3050E948F19609149
:101B9000B0057091B1059B0140E850E08091AE0521
:101BA0009091AF050E948F192091B4053091B50531
:101BB0004091B2055091B30560E070E080E090E0A4
:101BC0000E948F192091B0053091B1054091AE056A
:101BD0005091AF0560E470E080E090E00E948F19C2
:101BE0002091A0053091A10540919E0550919F053F
:101BF0006091A4057091A5058091A2059091A3051F
:101C00000E948F1920919805309199054091960571
:101C10005091970560919C0570919D0580919A0562
:101C200090919B050E948F1920919C0530919D05F4
:101C300040919A0550919B056091A4057091A5056E
:101C40008091A2059091A3050E948F196091B8051B
:101C50007091B9056A5F7F4F80919A0590919B05BD
:101C60000A970C940819089581E491E00E94631882
:101C70008EEB95E00E94E11E0E94F0180E949415E0
:101C800083FFFCCF08951092CA051092C9051092E7
:101C9000CC051092CB058AE491E00E9463188091F4
:101CA0000101082E000C990B0E9475188DE491E03B
:101CB0000E94631880910201082E000C990B0E946B
:101CC000751881E591E00E94631880910301082E48
:101CD000000C990B0E94751885E591E00E9463182D
:101CE00080916801082E000C990B0E947518809154
:101CF0006701882321F089E591E00E9463188091B3
:101D00006601882321F08CE591E00C946318089516
:101D10002F923F925F926F927F928F929F92AF929B
:101D2000BF92CF92DF92EF92FF920F931F93CF93C8
:101D3000DF93862E572E0E942C1864E070E080E01E
:101D400090E00E944813672B682B692B39F40E949E
:101D5000121A89EB97E00E94251A53C20E94121AA8
:101D60008FEA97E00E94251A80910101082E000C4D
:101D7000990B0E94751889EA97E00E94251A8091B4
:101D80000201082E000C990B0E9475188DE997E04E
:101D90000E94251A882D082C000C990B0E9475189A
:101DA00087E997E00E94251A852D052C000C990BD8
:101DB0000E94751880916601882321F084E897E0DD
:101DC0000E94251A0E94340E80916701882311F128
:101DD0000E94121A0E94430E1092CA051092C90561
:101DE0008AE090E09093CC058093CB0588E597E05E
:101DF0000E94251A88E497E00E94251A8EEB95E050
:101E00000E94E11E0E94CD0A883021F410926701E1
:101E1000912C01C0982C00E110E026E8E22E25E08C
:101E2000F22E30E2232E33E0332EC12C40E8D42EA4
:101E30005AE0A52EB12C80910101181644F0909122
:101E40006601992309F47AC11092660177C11914C9
:101E5000B4F70E94121A84E096E00E94251A0E94AC
:101E6000340E8091B6056091B8058F500E946A0AC1
:101E7000EC011092CA051092C9051092CC0510927F
:101E8000CB058FEE95E00E94251A8EED95E00E941D
:101E9000251A8EEB95E00E94E11E0E94CD0A843047
:101EA00061F480910201181634F10E94121A8CEB31
:101EB00095E00E94251A0E94340E8091B60560912B
:101EC000B8058F500E946A0A782E1092CA051092A7
:101ED000C9051092CC051092CB0580EB95E00E94CD
:101EE000251AC70DD11D77FCDA95CE010E94751811
:101EF0000E94340E02C0C0E0D0E0C1111FC080912A
:101F0000020181508093020187FF07C08091010187
:101F1000815080930101109202010E94121A0E94C6
:101F2000430E1092CA051092C9051093CC05009378
:101F3000CB0588E297E00E94251AFDC00E94121A84
:101F400088E396E00E94251A8EEB95E00E94E11E40
:101F500060E476E080E090E00E94B3138091B605E3
:101F60006091B8058F500E946A0AD82F84300CF017
:101F70005BC162E070E080E090E00E944813613055
:101F800071058105910509F04FC115140CF04CC184
:101F9000612C712C611027C05A9457FE02C09A948C
:101FA000512C0E94121A0E94430E1092CA051092E0
:101FB000C905B092CC05A092CB0589E097E00E94BC
:101FC000251A80910101082E000C990B0E947518AA
:101FD00088EF96E00E94251A892D092C000C990B98
:101FE0000E947518A8C00E94121A1092CA05109279
:101FF000C9051093CC050093CB058CEE96E00E94AA
:10200000251A0C2E000CDD0B809102019E01280F79
:10201000311D87FD3A95C9010E9475188DED96E036
:102020000E94251A852D052C000C990B9C01260D6C
:10203000311D67FC3A953901C9010E9475188091DC
:102040000201C80FD11D87FDDA956C167D06BCF420
:1020500028E532E04BE052E066E970E08BE092E088
:102060000E946D158DEC96E00E94251A8091660104
:10207000811102C09A9449C09A949A9446C0C61598
:10208000D7054CF5809171008D7F8093710010927F
:102090006501F0926401E0926301F0926201E092C6
:1020A000610181E290E090938705809386053092EC
:1020B000890520928805D0928B05C0928A050E94DE
:1020C00037148DEB96E00E94251A80910101815012
:1020D000809301011AC0C615D705B9F486EB96E0C6
:1020E0000E94251A8091020181508093020187FF8E
:1020F00007C080910101815080930101109202017B
:102100005A9457FE02C09A94512C85EA96E00E9498
:10211000251A892D092C000C990B0E94751886E947
:1021200096E00E94251A852D052C000C990B0E9423
:1021300075180E94430E0E94340E7DCE18160CF1C5
:1021400098EEE92E93E0F92E01E210E024EF31E061
:1021500043E850E064EF71E086E091E00E944515AD
:10216000809103018150809303010E94121A89E734
:1021700096E00E94251A81E080930101809302017C
:1021800040C080E2E82E83E0F82E07E114E026E963
:1021900030E04BE052E066E970E086E091E00E94BA
:1021A000451580910101880D92E0981514F48594ED
:1021B000880D809301018091020182301CF48F5FB1
:1021C00080930201809101018B301CF08AE08093A2
:1021D00001010E94121A86E596E00E94251A80915C
:1021E0000101082E000C990B0E94751884E496E0FA
:1021F0000E94251A80910201082E000C990B0E9462
:102200007518DF91CF911F910F91FF90EF90DF90A4
:10221000CF90BF90AF909F908F907F906F905F9086
:102220003F902F900C94340E1092CA051092C9055D
:102230001092CC051092CB0587E296E00E94251AF9
:102240008EEB95E00E94E11E6CED75E080E090E081
:102250000E94B3138091B6056091B8058F500E941B
:102260006A0A682E1092CA051092C9051092CC0510
:102270001092CB0589E196E00E94251A062C000CED
:1022800077086D0E711CD7FD7A94C3010E947518F2
:102290000E94340E7FCEE6EBF5E06281738180818F
:1022A00091814AE552E00F970C944617823079F0FD
:1022B0008330C1F0813019F56091B8057091B9058E
:1022C0008091B6059091B7054CEE50E015C0609135
:1022D000B8057091B9058091B6059091B70540EEAB
:1022E00051E00AC06091B8057091B9058091B605BA
:1022F0009091B70546E651E00F970C944617089564
:10230000AF92BF92CF92DF92EF92FF920F931F9303
:10231000CF93DF93EC01C62EE42E122F0E942C18CF
:10232000DE2CE7FE03C0DD24D394DE0CD594AC2C68
:102330000C2C000CBB0895012D0D311DD7FC3A95D6
:102340002E5F3F4F032E000C440B550B61E070E0F5
:1023500080E090E00E946C136883F12E17FF03C0A9
:10236000FF24F394F10EF59495012F0D311DF7FC28
:102370003A95032E000C440B550B61E070E080E0B1
:1023800090E00E946C13698363E070E080E090E06D
:102390000E944813DC01CB010196A11DB11D8A8367
:1023A00082E08C1564F062E070E080E090E00E94D2
:1023B0004813DC01CB010196A11DB11D8A830023C6
:1023C00011F12E2DEE0C330B2F5F3F4F032E000C1F
:1023D000440B550B6D2DDD0C770B880B990B0E9470
:1023E0006C136883212F110F330B2F5F3F4F032E88
:1023F000000C440B550B6F2DFF0C770B880B990BC2
:102400000E946C136983DF91CF911F910F91FF9010
:10241000EF90DF90CF90BF90AF900895CF92DF9272
:10242000EF92FF920F931F93CF93DF936C017A018A
:102430008B01C0E0D0E0CE15DF0589F0D8016D91A9
:102440008D01D601ED91FC910190F081E02DC60146
:102450000995892B11F47E0102C02196ECCFC701AA
:10246000DF91CF911F910F91FF90EF90DF90CF9070
:10247000089580916501E0916301F09164018823E2
:1024800049F0CF0102969093640180936301859196
:1024900094910895CF010296909364018093630113
:1024A0008081918108958091600108950E94E424C3
:1024B0002F923F924F925F926F927F928F929F9254
:1024C000AF92BF92CF92DF92EF92FF920F931F9342
:1024D000CF93DF93CDB7DEB727970FB6F894DEBF63
:1024E0000FBECDBFFC016A3069F4258981899289CC
:1024F00038E0239F800D911D1124928B818B108ACF
:1025000017869EC06D3009F49BC09F838E833588EB
:102510002489298333893A8361887288E784F08823
:1025200080E8E816F104C4F0AE81BF8155962C9185
:102530005597422F50E01F968D919C915097B6E091
:102540002B9F800D911D1124EE81FF81908B878739
:10255000268921115FC074C0F0E46F16710424F75E
:10256000C70125E0329E800D911D11241816190611
:10257000DCF6432C512CC30138E0339E800D911DB5
:1025800011241816190684F685E0689F800111242D
:102590000952184F20E0F8012490253009F4212C2D
:1025A000430158E020FC02C0398101C03A81311159
:1025B0000BC0F9818A81F81307C026945150840C0E
:1025C000951C5111EFCF1DC067018C2D8E198315FD
:1025D000A0F754018A2D8819831578F4432FB5018B
:1025E000C6012C833B835D830E94E41E9FEFA91AE2
:1025F000B90A5D813B812C81EDCFAFEFCA1ADA0AAF
:10260000E4CF2F5FE40CF51C0F5F1F4F263009F05D
:10261000C2CF8ACF6AEF64039001659F300D112409
:1026200020583F4F281739075CF4AE81BF81ED91E8
:10263000FC9111970190F081E02D6AE0CD010995A0
:1026400081E090E027960FB6F894DEBF0FBECDBFB5
:10265000DF91CF911F910F91FF90EF90DF90CF907E
:10266000BF90AF909F908F907F906F905F904F90B2
:102670003F902F900895615030F02091F100FC01BF
:1026800020830196F8CF289884E6809384010895EA
:10269000CF93DF9300D000D0CDB7DEB761157105C1
:1026A0008105910579F09B01AC0169833A834B83E5
:1026B0005C830E94572429813A814B815C810E946E
:1026C0007B2403C060E070E0CB010F900F900F906F
:1026D0000F90DF91CF910895CF92DF92EF92FF920A
:1026E0000F931F93621773078407950784F489017A
:1026F0009A016B017C01C901B8016C197D098E0931
:102700009F090E9448136C0D7D1D8E1D9F1D1F91FA
:102710000F91FF90EF90DF90CF9008953FB7F8941E
:102720008091790190917A01A0917B01B0917C0117
:1027300026B5A89B05C02F3F19F00196A11DB11D1C
:102740003FBFBA2FA92F982F8827820F911DA11D57
:10275000B11DBC01CD0142E0660F771F881F991F94
:102760004A95D1F708958F929F92AF92BF92CF92E0
:10277000DF92EF92FF926B017C010E948E134B015E
:102780005C01C114D104E104F104F1F00E948E1344
:10279000DC01CB0188199909AA09BB09883E93403D
:1027A000A105B10570F321E0C21AD108E108F108D2
:1027B00088EE880E83E0981EA11CB11CC114D104C0
:1027C000E104F10419F7DDCFFF90EF90DF90CF9097
:1027D000BF90AF909F908F9008951F920F920FB669
:1027E0000F9211242F933F938F939F93AF93BF9397
:1027F00080917D0190917E01A0917F01B091800137
:102800003091780123E0230F2D3720F40196A11D8C
:10281000B11D05C026E8230F0296A11DB11D20930E
:10282000780180937D0190937E01A0937F01B09306
:1028300080018091790190917A01A0917B01B09102
:102840007C010196A11DB11D8093790190937A01BD
:10285000A0937B01B0937C01BF91AF919F918F9129
:102860003F912F910F900FBE0F901F901895CF9210
:10287000DF92EF92FF920F931F93CF93DF930E940B
:102880003912811520E8920761F4809171008D7FE3
:1028900080937100109291004698479810927101B0
:1028A0008BC021E020937101813020E8920751F420
:1028B0008091610190916201909364018093630122
:1028C0000E94391297FD05C020917001222309F45E
:1028D0003FC020916F0121113BC021E02093720184
:1028E000EC01DF77209769F481E0809373014698CB
:1028F0003FE9C32E3FE0D32EE12CF12CCAEFD0E00C
:1029000014C08E0120E030E060E472E48FE090E0DB
:10291000A90198010E947B2469017A0181E0C81A0B
:10292000D108E108F10810927301E0919405F0914B
:1029300095050995811103C081E080937301809111
:1029400072018823B9F180917301811133C003C0F2
:1029500010927201C5CF46992DC0479A0E94391234
:10296000009771F09C01DE010E94CF24DC01CB01B5
:1029700029E0B595A795979587952A95D1F703C036
:102980008FEF9FEFDC01109290002AE020939100DE
:10299000D0929900C0929800809374019093750131
:1029A000A0937601B093770180917100826080934B
:1029B000710002C04798D2CFDF91CF911F910F9144
:1029C000FF90EF90DF90CF9008951F920F920FB677
:1029D0000F9211242F933F934F935F936F937F93A5
:1029E0008F939F93AF93BF93EF93FF938091740165
:1029F00090917501A0917601B0917701892B8A2B76
:102A00008B2B81F18091730181110BC098B180E40F
:102A1000892788B980917201882319F088B180587C
:102A200088B98091740190917501A0917601B0915F
:102A30007701181619061A061B06B4F48091740162
:102A400090917501A0917601B09177010197A1094C
:102A5000B1098093740190937501A0937601B093AE
:102A6000770102C00E943714FF91EF91BF91AF919F
:102A70009F918F917F916F915F914F913F912F9196
:102A80000F900FBE0F901F901895EF92FF920F932B
:102A90001F93DC01E1E7F0E090819D7F908310922D
:102AA0006501E6E8F5E0F0936401E0936301F093DB
:102AB0006201E0936101B183A083738362835583D4
:102AC00044833783268311870087F386E2861F912C
:102AD0000F91FF90EF900C943714DC01E1E7F0E0E8
:102AE00090819D7F908310926501E6E8F5E0F09378
:102AF0006401E0936301F0936201E0936101B183AB
:102B0000A08373836283558344833783268380E065
:102B100090E8918780870C9437142D9A0895BC0112
:102B200080E090E00C94B3138FB18095807F669B1A
:102B300088601C9B846008950C9465244F925F927A
:102B40006F927F928F929F92AF92BF92CF92DF92BD
:102B5000EF92FF920F931F93CF93DF9381EC8093BB
:102B60007C0085B1806F85B984B1877E84B984B1DA
:102B7000876E84B95E9A5F988AB1806D8AB9769AB9
:102B80006E9881B3806F81BB899880B38D7080BB54
:102B900080E58CBD81E08DBD85E090E00E948F15C1
:102BA0005F9A85E090E00E948F155E985C98E5EF53
:102BB000F3E18DE08E0F94919EBD00000DB407FEF1
:102BC000FDCF31968E13F7CF5C9A81E88093640035
:102BD000809165008160809365008EEB95E00E9496
:102BE000E11E0E94941587FF24C05C9885EA8EBD83
:102BF00000000DB407FEFDCF5C9A2E982F982D98FB
:102C00008091640080628093640081E083BF889536
:102C100013BEFCCF2D980E9494158478843871F0EF
:102C20000E9494158471843131F188EC90E00E9407
:102C30008F150E94941582FDEDCF3AC00E948D152C
:102C400088EC90E00E948F152F9882E090E00E941F
:102C500065248F3F29F06FEF82E090E00E946D24A1
:102C600084EF91E00E948F152F9A0E94941584782A
:102C70008438D9F3D5CF0E948D1588EC90E00E945E
:102C80008F152E9882E090E00E946524882329F019
:102C900060E082E090E00E946D2484EF91E00E9469
:102CA0008F152E9A0E94941584718431D9F3BDCF6B
:102CB0000E948D1582E090E00E946524882331F007
:102CC0003E9A3F9A81E08093600104C010926001B7
:102CD0003E983F9881E090E00E949C1581FF90C053
:102CE00082FB772470F882FD2E98C0EFDFEF08E0BA
:102CF00010E00E94941586FF04C02E9A2F9A2D9AF8
:102D00007FC0772029F0C430D10511F42E9A2F9876
:102D100081E00E94F9189E01D7FF04C022273327C3
:102D20002C1B3D0B27703327CE01D7FD079653E0B0
:102D3000959587955A95E1F7D7FF05C00197A801AA
:102D4000421B530B9A017C01F694FE2CEE24F7945F
:102D5000E79460E070E04801821A930AF701E058B6
:102D6000FF4F5F018F3FFFEF9F0744F40196685AC2
:102D70007F4F7501603B710589F721C0D701A65EC1
:102D8000BD4F40E050E08F3FEFEF9E0709F463C076
:102D9000FA01E60FF71FEB5BFC4EE4916D01CA18D8
:102DA000DB08CE0CDF1CF0E02F01022E01C0440C2A
:102DB0000A94EAF7F6016080462840824CC08EEB08
:102DC00095E00E94E11E8FE090E00E948F15219611
:102DD000C931D10509F08DCF772011F02F9A2D98A8
:102DE00080E991E00E948F150E948D15E091BE054B
:102DF000F091BF050190F081E02D8EEB95E00995F3
:102E00000E94F01882E48093C50581E0809301015F
:102E100092E09093020193E090930301809300016C
:102E200010926801109281011092670110926E0158
:102E300010926D01DF91CF911F910F91FF90EF9054
:102E4000DF90CF90BF90AF909F908F907F906F90CA
:102E50005F904F9008952115310581F0FA01E60F3A
:102E6000F71FEB5BFC4EE491F0E0082C02C0F595F7
:102E7000E7950A94E2F7DC90ED29EC934F5F5F4F02
:102E800011964835510509F07ECF70CF4F925F9271
:102E90007F928F929F92AF92BF92CF92DF92EF92EA
:102EA000FF920F931F93CF93DF9300D000D0CDB745
:102EB000DEB7DC014115510509F4BAC0FA01D4901E
:102EC000319634914D2C512C5C01A40CB51C1A1474
:102ED0001B040CF0ADC0803891050CF0A9C0CB01EB
:102EE000830F911D181619060CF0A2C060347105ED
:102EF0000CF09EC0F62FF770EF2ECB0177FD0796F2
:102F000023E0959587952A95E1F7F82F77FF04C080
:102F1000EE2011F0FFEFF80FB7FF05C06627772707
:102F20006A1B7B0B02C060E070E000E8A016B104F1
:102F300024F080E8F82EFA1A01C0FD2CF61AAF2E04
:102F40000F2E000CBB08FF3F1CF4CA2CC09401C01C
:102F5000C12C91E0832F877009F490E03695369567
:102F60003695930FA90EB11C19E0A116B10414F007
:102F700098E09F1B8C2D8F0F9D01082F10E80103F7
:102F8000200D311D1124260F371F4E5F5F4FCD9C42
:102F9000600D711D1124460F571F61E070E00E2C6B
:102FA00002C0660F771F0A94E2F7EFEFE69FD001A9
:102FB000E79FB00D1124A095B095BC83AB837C80B6
:102FC0009F0F8917A9F1F901EA57FE4F6F01A12C54
:102FD000B12CAF1438F5FA01EA0DFB1DE491E69F20
:102FE0004001E79F900C11249A82898287FD07C0D7
:102FF000F6011081E12FEA238E2AF6018082EE206D
:1030000051F0873044F4F601E058FF4F908097204C
:103010008A8098289082FFEFAF1ABF0A0FEFC01A7C
:10302000D00AD7CF8F5F440D551D20583F4FC9CFD1
:103030000F900F900F900F90DF91CF911F910F91F4
:10304000FF90EF90DF90CF90BF90AF909F908F90C8
:103050007F905F904F9008950F931F93CF93DF93CE
:10306000809164008E7F8093640080917A008064F8
:1030700080937A0080917A0086FDFCCFC091780021
:10308000D09179000E948E138E0120E030E09801EB
:1030900011270027600F711F821F931F209164006A
:1030A000216020936400611571058105910531F05F
:1030B000DF91CF911F910F910C945C24DF91CF9100
:1030C0001F910F910895009769F0FC010190002075
:1030D000E9F73197AF01481B590BBC018AEB95E02A
:1030E0000C940E1280E090E008958F929F92AF9220
:1030F000BF92CF92DF92EF92FF920F931F93CF93E5
:10310000DF93CDB7DEB7A1970FB6F894DEBF0FBE41
:10311000CDBF6C01990FEE08FF08F7FE31C0E091BA
:10312000BA05F091BB050190F081E02D6DE28AEBCC
:1031300095E009958C0122273327A9012C193D0917
:103140004E095F0919A2CE0181967C019AE0892E71
:10315000912CA12CB12CCA01B901A50194010E94A6
:10316000AD24605DF70162937F01211531054105B2
:10317000510589F7CF010E946318800F911F1DC070
:10318000A701960119A28E010F5D1F4F8AE0C82E7C
:10319000D12CE12CF12CCA01B901A70196010E94A2
:1031A000AD24605DF80162938F0121153105410561
:1031B000510589F7CF010E946318A1960FB6F894C4
:1031C000DEBF0FBECDBFDF91CF911F910F91FF905A
:1031D000EF90DF90CF90BF90AF909F908F90089529
:1031E00082E390E00E948F150E9494158111F8CF20
:1031F0000895E6E8F1E0A0E0B8E000800EBC81119F
:10320000012C1197A0FDFDCF0192B9F70DB40895DF
:103210006F927F928F929F92AF92BF92CF92DF92E6
:10322000EF92FF920F931F93CF93DF938C01EB01EB
:103230006E5F7F4F41E00E94E41EBE016250710943
:1032400041E0C8010E94E41E41E0BE01C8010296AF
:103250000E94E41E41E0BE01C80102970E94E41EE4
:10326000CC24C394D12C22E0E22EF12C5701AC0ED9
:10327000BD1E41E0B5014601800E911EC4010E94B1
:10328000E41E41E0B5015801AC18BD08C5010E941B
:10329000E41E3E016E187F0841E0B301C4010E94A4
:1032A000E41E41E0B301C5010E94E41E3701600E37
:1032B000711E41E05601AC0EBD1EB501C3010E9456
:1032C000E41E48018E189F0841E0B501C4010E9428
:1032D000E41E41E05E01AC18BD08B501C3010E94C7
:1032E000E41E41E0B501C4010E94E41EEA94EF2807
:1032F00039F08FEFC81AD80AEE24E394F12CB6CF38
:10330000DF91CF911F910F91FF90EF90DF90CF90C1
:10331000BF90AF909F908F907F906F9008955F9235
:103320006F927F928F929F92AF92BF92CF92DF92D5
:10333000EF92FF920F931F93CF93DF93EC018B01DA
:103340007A01A901461B570B57FF03C051954195C0
:103350005109C7018C1B9D0B97FF03C09195819567
:103360009109552453948417950714F0512C0AC0E1
:103370009E2D8F2D7901292F382F9C2F8D2FE8011D
:10338000092F182FEC16FD0654F4902F812F890178
:10339000292F382F9C2F8D2FE701E92EF82E67015A
:1033A000CC1ADD0A5901A01AB10AB7FE03C0B194C4
:1033B000A194B1083601D7FE03C08FEF681A780ACE
:1033C000759467940217130714F08FEF01C081E022
:1033D000882E880F9908EC16FD06A4F041E05520D0
:1033E00019F0BE01C80102C0B801CE010E94E41E5E
:1033F0006A187B0877FE04C0080D191D6C0C7D1C33
:103400002196E9CFDF91CF911F910F91FF90EF901F
:10341000DF90CF90BF90AF909F908F907F906F90F4
:103420005F90089580E0E6E8F1E081118FEF0024DD
:1034300081938193819381930394D1F7EAEBF5E033
:10344000128A118A108A178608950F931F93CF93BB
:10345000DF938C01C0E0D0E0F801EC0FFD1F649118
:10346000662371F0E091BA05F091BB050190F081FF
:10347000E02D8AEB95E00995892B11F02196ECCF90
:10348000CE01DF91CF911F910F9108952091C40536
:10349000282329F49091C305982381E009F480E062
:1034A0000895FC0180918501811103C08FEF9FEF8A
:1034B00008959FB7F89482E08093E9002091F2008C
:1034C00030E01216130614F421E030E02115310526
:1034D00059F0289884E6809384018091F1008083DC
:1034E0008091F200882319F09FBFC90108958BE6EF
:1034F0008093E800F9CF2FB7F89483E08093E90038
:103500009091E800892F807295FF04C09091F2009D
:1035100080E4891B2FBF08958F929F92AF92BF9234
:10352000CF92DF92EF92FF920F931F93CF93DF938F
:103530005C016B017A0180910B01882309F45BC067
:1035400080918501882309F456C08091830180FF12
:1035500005C08091E00082608093E000E70110E008
:103560000AEF83E0882E9AE3992E2097D9F10E94E2
:103570007B1A81110AC0015009F43DC061E070E07E
:1035800080E090E00E94B313F0CF282F30E0C21704
:10359000D3070CF48C2F4FB7F8948092E9009091E8
:1035A000E80095FF1DC0282F30E0C21BD30BF601A9
:1035B000982F915020F081918093F100FACFC20EA4
:1035C000D31E112319F09092E80009C08091E80001
:1035D00085FD06C09092E80011E0209709F010E008
:1035E0004FBFC3CF1111C3CF5D9884E68093820192
:1035F0001E141F0444F081E090E0F5019383828360
:1036000080E090E001C0C701DF91CF911F910F9141
:10361000FF90EF90DF90CF90BF90AF909F908F90F2
:1036200008958091D50581110DC082E08093D10568
:1036300084E08093D2051092D4051092D30581E0E6
:103640008093D50581ED95E00895CF93DF931F9288
:10365000CDB7DEB76983DC01ED91FC910280F38187
:10366000E02D41E050E0BE016F5F7F4F09950F9064
:10367000DF91CF91089583E08093E9008091F2007B
:10368000882319F08AE38093E8000895FC0184857B
:10369000958597FD0BC09FB7F89482E08093E90071
:1036A0008091F2009FBF90E0019608959FB7F89433
:1036B00082E08093E9008091F2009FBF90E008953E
:1036C000409130065091310620912E0630912F0600
:1036D00042175307B4F49091E8009570E1F390918C
:1036E000E80092FD19C08093F1008091300690911E
:1036F000310601968F739927892B19F48EEF8093E9
:10370000E800809130069091310601969093310641
:103710008093300681E0089580E00895DF92EF9273
:10372000FF920F931F93CF93DF93D82E8A017B01D3
:10373000E40EF51EEB01CE15DF0571F0D7FE03C0D8
:10374000FE01849101C088810E94601B2196811135
:10375000F2CF8FEF9FEF01C0C801DF91CF911F9192
:103760000F91FF90EF90DF9008950E947B1A90E0F8
:1037700008950F931F93CF93DF931F92CDB7DEB7BA
:103780008C01FC018485958597FF0EC0CE010196C2
:103790000E94511A019719F4298130E002C02FEFDD
:1037A0003FEFF80135872487F801848595850F90D0
:1037B000DF91CF911F910F910895CF93DF931F92C7
:1037C000CDB7DEB7FC018485958597FD05C02FEF49
:1037D0003FEF358724870BC0CE0101960E94511A16
:1037E000019719F4898190E002C08FEF9FEF0F904D
:1037F000DF91CF9108950F931F93CF93DF931F9283
:10380000CDB7DEB782E0898342E450E062E074E144
:1038100080E80E948E1B0E94111BDC0112960D9104
:103820001C9113970115110569F0D801ED91FC91D8
:103830000280F381E02DBE016F5F7F4FC8010995C3
:1038400097FF07C089810F90DF91CF911F910F9152
:103850000895F80100851185E5CF1F920F920FB6EC
:103860000F9211248F939F938091E1009091E1003A
:10387000937F9093E10083FF0FC01092E90091E0E5
:103880009093EB001092EC0092E39093ED00109275
:10389000850198E09093F00082FF20C093E0909320
:1038A000E9009091F200992319F09AE39093E800CF
:1038B00090918201992339F09091820191509093D7
:1038C0008201992389F190918401992339F0909193
:1038D0008401915090938401992341F184FF10C099
:1038E0008091E2008E7E81608093E2008091E10011
:1038F0008F7E8093E100809183018E7E806111C074
:1039000080FF16C08091E2008E7E80618093E2008D
:103910008091E1008E7E8093E100809183018E7E14
:1039200081608093830104C05D9ACDCF289AD6CF61
:103930009F918F910F900FBE0F901F9018951F921F
:103940000F920FB60F921124CF92DF92EF92FF9257
:103950000F931F932F933F934F935F936F937F9397
:103960008F939F93AF93BF93EF93FF93CF93DF9387
:10397000CDB7DEB76C97DEBFCDBF1092E900809166
:10398000E80083FFFAC168E0CE0145960E943B1330
:1039900082EF8093E8008D8987FF05C09091E80051
:1039A00090FFFCCF03C09EEF9093E800982F907695
:1039B00009F0C6C09E892F89188D91110CC08038DE
:1039C00029F480912D068093F10002C01092F1003D
:1039D0001092F10049C1422F50E0512B913051F427
:1039E000811142C14130510509F03EC180912D063F
:1039F0008D7F0BC0933061F4811136C14130510588
:103A000009F032C180912D06826080932D062CC171
:103A1000953041F48091E80080FFFCCF206820932E
:103A2000E30022C1963009F05FC0EB8CFC8C109251
:103A3000E9001092310610923006123091F5109282
:103A40002F0610922E060E94FB1B99E0BE016F5FAD
:103A50007F4FDB01E92F1D92EA95E9F799831A83DD
:103A600091E09E8390EA98879AEF9987209130069B
:103A700030913106275F3F4F3C832B838D8310921B
:103A8000E9001092310610923006F0922F06E09273
:103A90002E0649E050E080E00E948E1B0E94FB1B36
:103AA000E3C0F0922F06E0922E060E94111BDC016B
:103AB0001296ED90FC901397E114F10409F4C1C043
:103AC000D701ED91FC910480F581E02DBE016B5E84
:103AD0007F4FC7010995009719F00CF0C5C0C8C009
:103AE000F701E084F184E8CF973009F4C1C0983041
:103AF00021F481E08093F100B7C0993009F0B4C09F
:103B0000837009F0B5C0EBE3F1E081E021E036E33A
:103B10009081992361F08093E9002093EB009191CB
:103B20009093EC003093ED008F5F873089F78EE73C
:103B30008093EA001092EA008F898093850194C0F7
:103B40008B8D9C8D1092E9001092310610923006F8
:103B500090932F0680932E06898D811159C08E89EE
:103B60009D89913A59F4813209F082C047E050E0D2
:103B700064E071E080E00E948E1B76C0913209F013
:103B800077C0833289F4888D90E0982F88272F8919
:103B9000822BA0E0B0E080930C0190930D01A093E4
:103BA0000E01B0930F0160C0803269F48091E8008B
:103BB00082FFFCCF67E084E091E00E943B138BEF33
:103BC0008093E80051C0823209F04EC08F89809303
:103BD0000B01EEEFFFE7859194918B3F9C4D19F41B
:103BE000EEEFFAE002C0E0E0F8E08091040190918D
:103BF0000501A0910601B0910701803B9440A10509
:103C0000B10509F079C080910B0180FF95C074C0A7
:103C10000E94111BFC01028113810115110541F164
:103C2000D801ED91FC910190F081E02DBE016B5E19
:103C30007F4FC8010995811117C0F80100851185D2
:103C4000ECCF113009F44EC0133091F48F898823E2
:103C500009F445C0823081F440E867E086E694E1EB
:103C60000E948E23882321F08EEF8093E80085C088
:103C700081E28093EB0081C0813029F440E86BE061
:103C80008AE594E1EDCF833099F70E94111BDC01A6
:103C90001296ED90FC9013978E010F5F1F4F6801F5
:103CA000E114F10479F0D701ED91FC910680F781E0
:103CB000E02DB801C7010995080F111DF701E08437
:103CC000F184EECFD8011C92F60101900020E9F7B3
:103CD0003197BF016C197D0940E0C601C1CF64E492
:103CE00074E102C068E474E16115710509F2FB0139
:103CF000449150E080E83FCF80819181873797479A
:103D000009F0B2CFA895809160008861809360002F
:103D10008091320680936000EE3FBAE0FB0739F0F5
:103D20008091FE0A9091FF0A918380839DCF10922B
:103D3000FF0A1092FE0A98CFEE3F8AE0F80751F092
:103D4000808191818737A7E79A0721F09093FF0A36
:103D50008093FE0A87E797E79183808380916000D4
:103D6000809332069BE088E10FB6F894A895809383
:103D700060000FBE9093600077CF6C960FB6F894FA
:103D8000DEBF0FBECDBFDF91CF91FF91EF91BF910D
:103D9000AF919F918F917F916F915F914F913F91E3
:103DA0002F911F910F91FF90EF90DF90CF900F9088
:103DB0000FBE0F901F9018950895089580E090E031
:103DC000089580E00C94F91880389105B8F46034B7
:103DD0007105A0F490E121E061FD24E060FD220F77
:103DE00062FD2295687F969FD0011124A80FAA57E3
:103DF000BE4F8C91822B40FF82278C9308950F93A6
:103E0000CF93DF9300D01F92CDB7DEB70E942C185E
:103E100060910001062E000C770B880B990B2FE0A8
:103E200030E040E050E00E946C136830710581057D
:103E3000910579F520E233E043E850E064EF71E06A
:103E400086E091E00E946D1500E020910201409112
:103E5000010160910001CE0101960E9480118B81C9
:103E60000E9456111092CA051092C9058AE090E08E
:103E70009093CC058093CB058EE694E10E94251AA1
:103E80000E94340E69817A818B810E94880E0E9483
:103E9000DB0A0F900F900F90DF91CF910F91089553
:103EA00004970C94CB23CF93DF93CDB7DEB727973E
:103EB0000FB6F894DEBF0FBECDBF789484B5826094
:103EC00084BD84B5816084BD85B5826085BD85B5BE
:103ED000816085BD80916E00816080936E0010923C
:103EE00081008091810082608093810080918100B7
:103EF0008160809381008091800081608093800048
:103F00008091910082608093910080919100816006
:103F100080939100809190008160809390008091C7
:103F2000C10084608093C1008091C1008260809351
:103F3000C1008091C10081608093C1008091C30065
:103F400081608093C3008091C00082608093C00034
:103F50008091C20081608093C20080917A00846069
:103F600080937A0080917A00826080937A008091B9
:103F70007A00816080937A0080917A0080688093D3
:103F80007A001092850110922D0610928301809183
:103F9000D70081608093D70080EA8093D80089B5EC
:103FA000806189BD89B5826089BD09B400FEFDCFFD
:103FB00061E070E080E090E00E94B3138091D8004F
:103FC0008F7C80618093D8008091E000807F809317
:103FD000E0008091E1008E7E8093E1008DE080938F
:103FE000E200559A209A0E949E15F2E14F2E512C24
:103FF000A2E0CA2ED12CB3E08B2E912C1AE0612EB8
:10400000712C0EE1A02EB12C33243394E2E02E2E3D
:104010008FB7F89440917D0150917E0160917F01AE
:10402000709180018FBF8091C605942F981B892FB6
:104030009091C705992329F08093C8051092C70570
:10404000E4C09091C505891740F48F5F891708F087
:10405000DCC033BE889513BED8C03092C7054093EC
:10406000C6058091C1059091C20501969093C20545
:104070008093C10580916D0190916E018130910511
:1040800009F47EC01CF4892BF1F0BBC0823091058D
:1040900009F497C0039709F0B4C00E94121A86EF82
:1040A00092E10E94251A8DEE92E10E94251A8091DC
:1040B000B6059091B70543E252E164E170E04497A0
:1040C0000E94461796C00E94121A20E430E040E891
:1040D00050E060E070E080E090E00E948F1920E402
:1040E00030E040E050E060E070E080E890E00E9466
:1040F0008F192092CF05B092CA05A092C9051092DF
:10410000CC051092CB058EE393E10E94251AB09264
:10411000CA05A092C9055092CC054092CB0587E311
:1041200093E10E94251A3092CF0584E190E09093AC
:10413000CA058093C90582E390E09093CC058093F3
:10414000CB0586E293E10E94251A8EEB95E00E9452
:10415000E11E8091C3058093C4050E94941580934D
:10416000C30588E00E94461A882309F44AC00E94C9
:10417000DB0A81E090E090936E0180936D0141C075
:1041800080910301811105C0D0926E01C0926D0132
:1041900038C00E94430E8091C3058093C4050E94DD
:1041A00094158093C30580E80E94461A8823A9F1DC
:1041B00080916C0181113CC080916B0181113DC0E7
:1041C0002CC00E94121A2092CF058BE193E10E942D
:1041D000251A1092CA051092C90584E190E09093C7
:1041E000CC058093CB053092CF0584E093E10E940B
:1041F000251A8EEB95E00E94E11E0E94340E0E946B
:104200009E158EEB95E00E94E11E80E090E0892BE8
:1042100009F4FECE0E940000F7CE80E20E94461A0A
:10422000882309F4E7C180916A01882309F4E2C177
:104230000E94DB0A0E94FF1EE4CF0E94121A00E0D7
:10424000209102014091010160910001CE0104968C
:104250000E9480110E942C186EE070E080E090E0D7
:104260000E944813DC01CB010196A11DB11D082E4F
:10427000000C990BAA0BBB0BFC013197EE30F1053A
:1042800060F0809101018B301CF08AE08093010185
:104290000E94340E0E94DB0AB4CFE859FF4F0C9401
:1042A000DE2420E233E043E850E064EF71E086E092
:1042B00091E00E946D158E810E9456111092CA05E0
:1042C0001092C9057092CC056092CB050E94340E05
:1042D0006C817D818E810E94880EDCCF72E3E72E97
:1042E000F12C00E216E022E330E043E952E062E321
:1042F00070E08BE092E00E9445158BE092E10E9415
:10430000251A6091B8057091B9058091B605909114
:10431000B70547ED5CE073C062E3E62EF12C00E2E6
:1043200016E022E330E043E952E062E370E08BE024
:1043300092E00E94451582EF91E10E94251A60915A
:10434000B8057091B9058091B6059091B70541E522
:104350005DE055C052E3E52EF12C00E216E022E3C9
:1043600030E043E952E062E370E08BE092E00E94CB
:1043700045158DED91E10E94251A6091B805709167
:10438000B9058091B6059091B7054BEC5DE01CC175
:1043900042E3E42EF12C00E216E022E330E043E9B0
:1043A00052E062E370E08BE092E00E94451584ECFD
:1043B00091E10E94251A62E070E080E090E00E94A6
:1043C0004813DC01CB010196A11DB11D813069F0BC
:1043D0008230C1F46091B8057091B9058091B6053D
:1043E0009091B7054FEB5EE00AC06091B8057091FF
:1043F000B9058091B6059091B70545E45EE00F9749
:104400000E944617809101018F5F8093010139CF8F
:1044100032E3E32EF12C08E811E022E330E04AE435
:1044200051E062E370E086E091E00E94451583EB85
:1044300091E10E94251A109168011F5F1093680195
:10444000809101018F5F80930101809102018F5F54
:104450008093020101E024E010177CF049E35FE063
:1044600064E170E0822F022E000C990B2F830E94D2
:1044700046172F812E5D0F5FEFCF1330D1F50E94CD
:10448000340E0E94121A85EA90E10E94251A80914A
:10449000B60584514BED5FE062E270E0082E000C3F
:1044A000990B0E9446170E94340E809101018B30B7
:1044B0001CF09AE09093010101E0209102014091EB
:1044C000010160910001CE0101960E948011698175
:1044D0007A818B810E94880E8091010118162CF43C
:1044E00090926E0180926D0104C0D0926E01C092D4
:1044F0006D01809100018F5F80930001C2CE22E3A5
:10450000E22EF12C08E811E022E330E04AE451E029
:1045100062E370E086E091E00E9445151092CA05C2
:104520001092C9051092CC051092CB0584E991E157
:104530000E94251A0E944B113092670148C092E3F5
:10454000E92EF12C08E811E022E330E04AE451E0E2
:1045500062E370E086E091E00E9445151092CA0582
:104560001092C9051092CC051092CB0585E791E118
:104570000E94251A0E944B113092660128C082E3E6
:10458000E82EF12C00E216E022E330E043E952E0AD
:1045900062E370E08BE092E00E9445151092CA053C
:1045A0001092C9051092CC051092CB058FE591E1D0
:1045B0000E94251A6091B8057091B9058091B605E1
:1045C0009091B7054EEC50E10F970E9446178091ED
:1045D00002018F5F8093020154CE1092CA0510929F
:1045E000C9051092CC051092CB0588E491E10E9498
:1045F000251A47CE80E40E94461A882309F401CE8A
:1046000080916901811114CEFCCDEDEDF5E01382AE
:10461000128288EE93E0A0E0B0E084839583A683C5
:10462000B78388E191E0918380838FEF9FEF958737
:104630008487EAEBF5E0138212821186128680E10C
:1046400083871086178215868AE291E091838083A2
:1046500088E391E095838483108A1786128A118AF1
:1046600081E0838B148A858B168A83E592E190938F
:1046700095058093940580E090E89093930580934E
:10468000920546983E9A47983F9AE6EBF5E080E41B
:1046900090E09183808380E290E093838283E2EBD9
:1046A000F5E084E190E0918380834AE050E0538319
:1046B0004283EEEAF5E09183808386E390E0938382
:1046C0008283EAEAF5E02CE630E0318320835383ED
:1046D0004283E6EAF5E03183208393838283E2EA32
:1046E000F5E02DE230E03183208346E150E0538352
:1046F0004283EEE9F5E03183208393838283EAE904
:10470000F5E023E530E03183208353834283E6E9FB
:10471000F5E031832083938382830895CF92DF92E3
:10472000EF92FF920F931F93CF93DF931F92CDB71A
:10473000DEB7182F062FE42E862F880F8E5F998301
:104740000E94601B83E00E94601BF12EC12E9981A4
:10475000D92E8C2D8F19801798F4F601E7FE02C030
:10476000849101C080810E94601B182F80E00E940C
:10477000601B8123FFEFCF1ADF0A8111EACF01C04E
:1047800081E00F90DF91CF911F910F91FF90EF90FB
:10479000DF90CF9008950F931F93CF93DF93EC0199
:1047A00081E090E00E949C1580FF2EC08AE090E09E
:1047B0000E949C159FEF980F9E3F30F522E330E05A
:1047C000388B2F8728E330E03A8B298B0BE010E001
:1047D000E881F9810190F081E02D682FCE010995E3
:1047E000C8010E949C150F5F1F4F0131110581F711
:1047F000CE0104960E94E11E88EE93E0DF91CF91F6
:104800001F910F910C948F15DF91CF911F910F91F4
:1048100008958F929F92AF92BF92CF92DF92EF92C4
:10482000FF92CF93DF93EC01688179818A819B812C
:10483000611571058105910521F464E279ED8BE53F
:1048400097E02DE133EF41E050E00E947B244901E5
:104850005A019B01AC01A7EAB1E40E949A246B01C2
:104860007C01ACEEB4EFA50194010E94A824DC0108
:10487000CB018C0D9D1DAE1DBF1DB7FF03C0019761
:10488000A109B04888839983AA83BB83BC01CD0169
:104890009F77DF91CF91FF90EF90DF90CF90BF9007
:1048A000AF909F908F9008950E940924089580E111
:1048B00091E00E9409240895609310017093110102
:1048C00080931201909313010895F999FECF92BD40
:1048D00081BDF89A992780B50895262FF999FECFC2
:1048E0001FBA92BD81BD20BD0FB6F894FA9AF99A0D
:1048F0000FBE01960895052E97FB1EF400940E94AA
:10490000922457FD07D00E94AD2407FC03D04EF43B
:104910000C94922450954095309521953F4F4F4FE0
:104920005F4F089590958095709561957F4F8F4F5B
:104930009F4F08950E94CF24A59F900DB49F900D86
:10494000A49F800D911D11240895B7FF0C949A2403
:104950000E949A24821B930B0895A1E21A2EAA1B8F
:10496000BB1BFD010DC0AA1FBB1FEE1FFF1FA2171F
:10497000B307E407F50720F0A21BB30BE40BF50B1C
:10498000661F771F881F991F1A9469F760957095A5
:10499000809590959B01AC01BD01CF010895A29F28
:1049A000B001B39FC001A39F700D811D1124911D03
:1049B000B29F700D811D1124911D0895EE0FFF1FF0
:1049C0000590F491E02D099481E090E0F8940C9426
:0649D000E924F894FFCF7A
:1049D6000101020300E1000000000000FFFFFFFFED
:1049E6000100000000000000251B8C1AB51B3B1BB4
:1049F600461BDD1BB91B0000000058120E12DE1EFE
:104A0600DD1ECB23FCFF0000501F00C1808100008B
:104A1600000A5072657373204100533A0020483AE9
:104A260000204C3A0020433A002069002032000062
:00000001FF
